:020000040000FA
:10000000680B0020E1020000E9020000EB020000A2
:10001000ED020000EF020000F1020000000000000D
:10002000000000000000000000000000F3020000DB
:10003000F502000000000000F7020000A51D00000E
:10004000FB020000FD020000FF02000001030000AF
:10005000030300000503000007030000090300007C
:100060000B0300000D0300000F030000110300004C
:10007000130300001503000017030000190300001C
:100080001B0300001D0300001F03000021030000EC
:1000900023030000250300002703000029030000BC
:1000A0002B0300002D0300002F030000310300008C
:1000B000330300003503000037030000390300005C
:1000C0003B0300003D0300003F030000410300002C
:1000D00043030000450300004703000049030000FC
:1000E0004B0300004D0300004F03000051030000CC
:1000F000530300005503000057030000590300009C
:100100005B0300005D0300005F030000610300006B
:10011000630300006503000067030000690300003B
:100120006B0300006D0300006F030000710300000B
:1001300073030000750300007703000079030000DB
:100140007B0300007D0300007F0300009903000093
:1001500000000000000000009B0300009D03000061
:100160009F030000A103000000000000A3030000A3
:10017000A5030000A7030000A9030000AB030000D3
:10018000AD030000AF030000B1030000B3030000A3
:10019000B5030000B7030000B9030000BB03000073
:1001A000BD030000BF030000C1030000C303000043
:1001B000C5030000C7030000C9030000CB03000013
:1001C000CD030000CF030000D1030000D3030000E3
:1001D000D5030000D7030000D9030000DB030000B3
:1001E000DD030000DF030000E1030000E303000083
:1001F000E5030000E7030000E9030000EB03000053
:1002000000F002F800F059F80AA090E8000C8244CF
:100210008344AAF10107DA4501D100F04EF8AFF2AC
:10022000090EBAE80F0013F0010F18BFFB1A43F0D4
:100230000103184760360000803600000A4410F8B9
:10024000014B14F00F0508BF10F8015B240908BF2B
:1002500010F8014B6D1E05D010F8013B6D1E01F822
:10026000013BF9D1641E03D0641E01F8015BFBD190
:100270009142E4D3704700000023002400250026AB
:10028000103A28BF78C1FBD8520728BF30C148BFF9
:100290000B607047662902F0EC87002070471FB59D
:1002A00002F0E2FF00F0A4FB04000020002102F0B5
:1002B0004BFBE0601FBD10B510BD00F095FC114672
:1002C000FFF7EDFF02F08EF800F0B3FC03B4FFF788
:1002D000F2FF03BC00F0F6FC0138FDD170470000CE
:1002E0004548804745480047FEE7FEE7FEE7FEE752
:1002F000FEE7FEE7FEE7FEE7FEE7FEE7FEE7FEE7D6
:10030000FEE7FEE7FEE7FEE7FEE7FEE7FEE7FEE7C5
:10031000FEE7FEE7FEE7FEE7FEE7FEE7FEE7FEE7B5
:10032000FEE7FEE7FEE7FEE7FEE7FEE7FEE7FEE7A5
:10033000FEE7FEE7FEE7FEE7FEE7FEE7FEE7FEE795
:10034000FEE7FEE7FEE7FEE7FEE7FEE7FEE7FEE785
:10035000FEE7FEE7FEE7FEE7FEE7FEE7FEE7FEE775
:10036000FEE7FEE7FEE7FEE7FEE7FEE7FEE7FEE765
:10037000FEE7FEE7FEE7FEE7FEE7FEE7FEE7FEE755
:10038000FEE7FEE7FEE7FEE7FEE7FEE7FEE7FEE745
:10039000FEE7FEE7FEE7FEE7FEE7FEE7FEE7FEE735
:1003A000FEE7FEE7FEE7FEE7FEE7FEE7FEE7FEE725
:1003B000FEE7FEE7FEE7FEE7FEE7FEE7FEE7FEE715
:1003C000FEE7FEE7FEE7FEE7FEE7FEE7FEE7FEE705
:1003D000FEE7FEE7FEE7FEE7FEE7FEE7FEE7FEE7F5
:1003E000FEE7FEE7FEE7FEE7FEE7FEE70448054915
:1003F000034A054B70470000291E0000010200005F
:1004000068090020680B0020680900200FB41CB5A3
:10041000074B06AA7B4469460090059800F0CFFA86
:100420000020694600F0DEFA1CBC5DF814FB0000F9
:10043000CD0500002DE9F0474FF0000A894604463B
:10044000C0F820A02046E1688847002876D02528FB
:1004500006D0D4E901219047206A401C2062F1E7D0
:10046000E168204600268847C4F81CA005460027FE
:10047000C4F818A02A2D09D0284601F0F9FD38B398
:1004800004EB8708303DC8F8185019E059F8041BF0
:10049000204604EB87029161E1688847012F0546F9
:1004A00018D1E069002820DA26F020061DE0D8F8EF
:1004B000180000EB800005EB40003038C8F8180049
:1004C0002046E1688847054601F0D2FD0028EED1BC
:1004D000012F0AD02E2D08D12046E16888477F1CC5
:1004E0000546022F46F02006C4DBA069002803DA87
:1004F000404246F00106A061F00701D026F0100648
:100500006C2D0AD0682D08D04C2D39D06A2D35D0ED
:10051000742D35D07A2D33D016E0E1682F46204671
:100520008847B84205460AD16C2F27D04FF4806027
:10053000E168064320468847054605E027E06C2F22
:100540001AD04FF4807006430DB3A5F1410019286D
:1005500002D8203546F400664A46294620462660E1
:100560004E46FFF797FE80B101280BD0F61D26F00E
:10057000070000F1080965E74020E4E78020D7E79D
:100580000020D5E706F104095CE7284661E7206A08
:10059000BDE8F08770477047704770472DE9FF4FFF
:1005A0000C461E464FF0FF378BB0D2E90001DDF854
:1005B00060800A908A46C1F30A5505B93D4600217C
:1005C00008464FF00000BAF1000F00F4400005DAD1
:1005D00000EB80004FF4400101EA50004FEA9059CF
:1005E000B9F1010F00DDB9460A9850EA4A000ED071
:1005F00044F61050A5F2FF3545432F14B8F1000F13
:100600001ED07542291E1EDDC9F100021CE0B8F1A2
:10061000010F4FF0000001D0302103E0F24305E06C
:100620002154401CB042FBDB304600220021215403
:100630000B99C1F80880C1E900200FB0BDE8F08F28
:10064000BD1B6D1CDEE74A4600DA694206A800F0D1
:1006500059FA06AB93E8070003AB83E8070050465E
:100660000A9900F036FB8DE80700A0F500501F380E
:1006700000900398002D09DD42F21F014A4608440C
:1006800003A90390684600F095FD08E0A0F500502E
:100690004A461F3803A90390684600F09FFD8DE885
:1006A00007000004000C03D04FF0FF30410800E0C9
:1006B0001046B8F1000F03D00022009215461EE04C
:1006C000751E05D400F098F9303262556D1EF9D5CB
:1006D000B3460122084302D000227F1C04E02078A8
:1006E000302801D100227F1E002A099786D01DE004
:1006F000112D07DA00F080F9303262556D1C50EA96
:100700000102F5D1084302D00098C8B10EE00021E3
:10071000681E05E0235C625C63542254401E491C41
:100720008142F7DBAB46A81B401E0990002004F86D
:100730000B000B98099AC0F80880C0E9002B7CE7F1
:1007400011264FF0000859E72DE9F04F884604467E
:10075000D21D22F0070191B0D1E90001CDE90A01D3
:1007600001F06EFC02460B98C00F01D02D2007E06F
:100770002068810701D52B2002E0202101EAC0007A
:10078000032A099001D0072A05DB0346414620468B
:1007900000F078F90BE12078800601D5E06900E0EF
:1007A0000620B8F1650F814606D0B8F1660F18D063
:1007B000B8F1670F70D131E00020B9F1110F00904E
:1007C00001DB112301E009F101030AAA01A90CA828
:1007D000FFF7E4FEDDE90C70002609F10105834610
:1007E00047E001204B4600904FF000470AAA01A9BC
:1007F0000CA8FFF7D3FEDDE90DB00C995D4600268D
:1008000010B909F101000D18B9EB050003D4C0F1CE
:10081000FF3609F10105A5EB09002BE0B9F1010F45
:1008200001DA4FF001090020B9F1110F009048469C
:1008300001DD112300E003460AAA01A90CA8FFF775
:10084000ADFEDDE90C704D4600268346207800079A
:100850000AD4AB4500DA5D4601A8012D04DD41193B
:1008600011F8011C302907D04F4502DA17F1040FA7
:1008700004DA012082460FE06D1EEEE7002F02DC55
:10088000ED1B3E4403E0781CA84200DD7D1CB81B34
:1008900000F1010A4FF000472078000703D4AA4571
:1008A00001DB4FF0FF3A0021B7F1004F0DF1430893
:1008B0008DF8431024D002202B23002F01DA7F4231
:1008C0002D230A21021EA0F1010000DC5FB197FB7D
:1008D000F1FC97FBF1F201FB1C7C17460CF1300C8C
:1008E00008F801CDEEE7A8F10100037021880905A1
:1008F00001D5452100E06521A0F1010800F8011CA7
:1009000009980FA9A1EB0807FF1D00B101204119AB
:1009100001EBEA70A1693844081A401EA0612078F2
:10092000C00602D42046AFF30080099828B1D4E96C
:1009300001219047206A401C20622078C00622D501
:100940002046AFF300801EE0002E04DBB34502DD3D
:1009500001A8805D00E03020D4E901219047206AA1
:10096000401C2062761CAAF101005FEA000A0AD14D
:1009700000F03EF8C0680168405CD4E9012190476E
:10098000206A401C2062281EA5F10105DCDC07E07E
:10099000D4E9012118F8010B9047206A401C20621D
:1009A000381EA7F10107F3DC2046AFF300800320D7
:1009B00011B043E601694A1C02610878704700B52E
:1009C0008FB0CDE901310021059105497944CDE988
:1009D000031011466846FFF72DFD0FB000BD000063
:1009E000E5FFFFFF0A6802F8010B0A60704700008C
:1009F000004870472809002030B5B0F10A024FEADC
:100A0000900E71F100034EEA817EB0EB0E0061EBB7
:100A100091014FEA101E4EEA017E10EB0E0041EBF1
:100A200011114FEA102E4EEA016E10EB0E0041EB51
:100A300011214FEA104E4EEA014E10EB0E0041EB31
:100A40001141401841F100014FEAD00040EA4170E5
:100A50004FEAD10110EB80054FEA810444EA90741B
:100A600044EB01046D1944EB0404521BA3414FF005
:100A7000000348BF0A3200D530BD401C41F10001DF
:100A800030BD00002DE9F0411F46044603260168F1
:100A9000072A01F4006004DB08B116A505E016A5DD
:100AA00003E008B115A500E015A521F010002060B5
:100AB000A069C01EA0610FB1401EA0612046AFF327
:100AC00000804FB1D4E9012138469047206A401C8C
:100AD0002062C01C206206E0206AFAE7D4E9012106
:100AE00015F8010B9047761EF8D22046AFF3008030
:100AF000BDE8F0814E414E006E616E00494E4600E9
:100B0000696E66002DE9F047814616468AB0334883
:100B100078440DC88DE80D0030487844801C03AC43
:100B20000DC884E80D0041F69B300844372190FB46
:100B3000F1F290FBF1F5A5F1800501FB12041B3CDD
:100B400002D56442012000E00020DFF890A080463A
:100B50000027FA44AAF1BE0A0DE0E00709D03246A8
:100B6000684607EB47010AEB810100F037FB8DE88F
:100B7000070064107F1C002CEFD1184F7F44AC3F5E
:100B800018E0E80714D007EB04100DF1180A90E8FC
:100B90000E008AE80E00C068F04201D19819089052
:100BA000324606A903A800F019FB03AB83E807004F
:100BB0006D10641C002DE4D132466946B8F1000F77
:100BC00003A802D000F0F6FA01E000F007FBC9E943
:100BD0000001C9F808200AB0BDE8F087682D0000C0
:100BE00000487047080900207546FFF7F9FFAE4638
:100BF00005006946534620F00700854618B020B529
:100C0000FFF7F4FBBDE820404FF000064FF000076F
:100C10004FF000084FF0000B21F00701AC46ACE8A4
:100C2000C009ACE8C009ACE8C009ACE8C0098D4611
:100C3000704710B50446AFF300802046BDE8104071
:100C4000FFF744BB4FF0013C50F8042B51F8043B34
:100C50009A4221D1A2EB0C03934313EACC1317D190
:100C600050F8042B51F8043B9A4215D1A2EB0C0327
:100C7000934313EACC130BD150F8042B51F8043BE7
:100C80009A4209D1A2EB0C03934313EACC13DBD0B5
:100C90004FF00000704700BFD01A01BAB1FA81F1DD
:100CA00001F0180122FA01F0CB40C1F12001DBB2C2
:100CB000C0B2C01A2CFA01F3D11A914311EAC31140
:100CC000E6D1704701491820ABBEFEE726000200BE
:100CD00070475FEA400C08BF91F0000F4FEA8C2389
:100CE0004FEAC12243EA51514FEA1C5018BF00F5A8
:100CF000F0404FEA300018BF41F000415FEA6C5C01
:100D000000F02980BCF1FF3F08BF40F080407047F1
:100D1000130C06BF12044FF0100C4FF0000C130E12
:100D200004BF12020CF1080C130F04BF12010CF1E6
:100D3000040C930F04BF92000CF1020CD30F04BFFC
:100D400052000CF1010C11464FF00002A0F11F00FF
:100D5000A0EB0C00704711F0004F08BF704731F056
:100D600000413FF4D5AF0B0C06BF09044FF0100C47
:100D70004FF0000C0B0E04BF09020CF1080C0B0F16
:100D800004BF09010CF1040C8B0F04BF89000CF1A6
:100D9000020CCB0F04BF49000CF1010CCCF1200375
:100DA000A0EB0C0022FA03F302FA0CF241EA030171
:100DB00000F10100704720F07F4C80EA030023F02F
:100DC0007F47ACEB070303F57C5300F0004003F1D1
:100DD000FF032DE980494FEA154B09B44FEA14434C
:100DE00025EA0B4E24EA03480FF2042606EB1327EC
:100DF00049083E785FEA320203FB0667C7F5000741
:100E000007FB06F64FEA54374FEAD64606F10206CC
:100E100007FB066CCCF1005C4FEA1C472CEA074C40
:100E200007FB06F40CFB06F504EB15464FEA961695
:100E300034BF00204FF000404FEAD13706FB07FCDB
:100E40004FEA1C4C0CFB0BF7D21B03FB0CF761EBBE
:100E500007010CFB0EF7B0EB074072EB17420CFBDF
:100E600008F734BFA2EB0742B2EB074261EB174130
:100E70004FEA0C444FEA910706FB07FC4FEA1C4C73
:100E80000CFB0BF7B0EBC74072EB573203FB0CF7D0
:100E900034BFA2EBC742B2EBC74261EB57310CFB48
:100EA0000EF7B0EBC70072EB57720CFB08F734BFBC
:100EB000A2EBC702B2EBC70261EB5771039F4FEA87
:100EC000816141EA921104EBCC044FEAD1374FEA39
:100ED000826206FB07FC42EA90124FEA80604FEA0A
:100EE0001C4C0CFB0BF7D21B03FB0CF761EB07014F
:100EF0000CFB0EF7B0EB074072EB17420CFB08F748
:100F000034BFA2EB0742B2EB074261EB17414FEA55
:100F10008C554FEA910704EB9C2406FB07FC4FEA33
:100F20001C4C0CFB0BF7B0EBC74072EB573203FBCA
:100F30000CF734BFA2EBC742B2EBC74261EB5731AB
:100F40000CFB0EF7B0EBC70072EB57720CFB08F707
:100F500034BFA2EBC702B2EBC70261EB577115EBCE
:100F60004C254FEA816141EA92114FEA82624FEAD1
:100F7000D13742EA901206FB07FC44F100044FEA25
:100F800080604FEA1C4C0CFB0BF7D21B03FB0CF7E9
:100F900061EB07010CFB0EF7B0EB074072EB174259
:100FA0000CFB08F734BFA2EB0742B2EB074261EB40
:100FB000174115EB1C154FEA813141EA92414FEA86
:100FC000823242EA90424FEA80304FEA0C7644F196
:100FD000000448EA03434EEA0B484FF0000EB2EB20
:100FE000080C71EB030724BF624639464EEB0E0E28
:100FF0004FF0000B0018524149414BEB0B0BB2EB89
:10100000080C71EB03077BF1000B24BF62463946E5
:101010004EEB0E0E4FF0000B0018524149414BEBC6
:101020000B0BB2EB080C71EB03077BF1000B24BF39
:10103000624639464EEB0E0E51EA020718BF46F0E3
:10104000010616EB0E7655F1000254F1000103D5AE
:10105000BDE88901BDE80088BDE88901BDE8004818
:10106000B619524141EB0101A3F1010370478080A1
:101070007F7E7D7C7B7A79787776767574737271F2
:1010800071706F6E6E6D6C6C6B6A6A6968686766AA
:1010900066656464636362616160605F5F5E5E5D3C
:1010A0005D5C5C5B5B5A5A595958585757565655B0
:1010B00055555454535352525251515050504F4F12
:1010C0004F4E4E4D4D4D4C4C4C4B4B4B4A4A4A4962
:1010D00049494848484747474746464645454544A5
:1010E0004444444343434342424242414141002B32
:1010F00026D4770021D01CB54FEA370703B44FF050
:1011000010004FF010014FF000000FBCBDE8104080
:101110000BF1010BBBF1010F08BF5FEA170722BFFC
:1011200012F1010211F101014FF0004143F10003FE
:1011300000F0004043EA00007047F9D35708DAE7AF
:1011400046EA064613F1400F4FEA16461FDD13F13B
:10115000200FDFBF16430A46002120335B42C8D070
:10116000C3F1200746EA064602FA07F74FEA164699
:1011700046EA0706C3F1200722FA03F201FA07F74D
:1011800021FA03F14FF0000342EA0702B1E746EA11
:10119000020646EA06464FEA164646EA0106BCBF84
:1011A00046EA0646360C4FF000034FF000024FF0BF
:1011B00000019EE72DE9C048934630B491E838001D
:1011C00007C831EA400C48BF34EA430C03D5FFF7A7
:1011D000F2FDFFF78CFFF0BCBDE800882DE9C048A8
:1011E000934630B491E8380007C810F0804F08BF2C
:1011F00013F0804F03D100F005F8FFF778FFF0BC43
:10120000BDE8008820F07F4780EA030023F07F4C90
:1012100007EB0C03A3F57C5300F00040A3F1FE03A1
:1012200092F0000F00F0B38095F0000F00F077808F
:101230002DE901494FEA11404FEA144621EA0048DE
:1012400000FB06FC24EA064708FB06F607FB08F845
:1012500000FB07F718EB06484CEB164C4FEA124B15
:1012600018EB07484FEA15464CEB174022EA0B4EA5
:101270000BFB06FC25EA06470EFB06F607FB0EFEF7
:101280000BFB07F71EEB064E4CEB164C4FF000061F
:101290001EEB074E4CEB174B18EB0B0840F1000010
:1012A00018EB0E0B58EB000840F100008F1A4FF0BE
:1012B00000013CBFC943661B14BFB5EB040C002101
:1012C0003CBFC943F61B4FEA17444EEA8E0E27EA8D
:1012D00004454FEA1C4704FB07622CEA074C05FB58
:1012E00007F70CFB05F604FB0CFC16EB074642EB7C
:1012F000174216EB0C4642EB1C421BEB060658EB62
:101300000202414146EA9E0601D5BDE80189B619AF
:10131000524141EB0101A3F10103BDE801894FEA0C
:1013200014454FEA114724EA054621EA074C05FB1C
:1013300007F406FB07F70CFB06F105FB0CFC11EBB1
:10134000074144EB17444FEA124711EB0C4144EBC1
:101350001C4422EA074C05FB07F206FB07F70CFBCF
:1013600006F605FB0CFC16EB074642EB174216EBA4
:101370000C4642EB1C456A1854F1000148BF704707
:10138000B619524141EB0101A3F10103704795F0F9
:10139000000F37D04FEA11424FEA144721EA0246C4
:1013A00024EA074C02FB07F106FB07F70CFB06F4E7
:1013B00002FB0CFC14EB074441EB17414FEA1547C5
:1013C00014EB0C4441EB1C4125EA074C02FB07F5EA
:1013D00006FB07F70CFB06F602FB0CFC16EB0746B8
:1013E00045EB174516EB0C4645EB1C42121951F123
:1013F000000148BF7047B619524141EB0101A3F10A
:10140000010370474FEA14454FEA114724EA0546A5
:1014100021EA074C05FB07F106FB07F70CFB06F278
:101420004FF0000605FB0CFC12EB074241EB1741A5
:1014300012EB0C4251EB1C4148BF7047921841EB34
:101440000101A3F101037047002100E0491C814222
:10145000FCD37047D0F8003412F0010F14BF0B43D7
:101460008B43C0F8003412F0020FD0F8202414BFD0
:10147000114322EA0101C0F820147047C0F81C147F
:101480007047D0F8102422EA0101C0F81014704708
:10149000D0F810241143C0F81014704770B50C46F2
:1014A00000F0A6FD0546214600F068FA2846BDE892
:1014B000704000F031BA10B4D0F80844D0F80424D9
:1014C000D0F80CC4D0F8383514EA010018BF012058
:1014D0000A4018BF022202431CEA010018BF042080
:1014E00042EA000113F0010018BF4FF480300843B6
:1014F00010BC7047D0F8083412F0010F14BF0B4332
:101500008B43C0F80834D0F8043412F0020F14BF33
:101510000B438B43C0F80434D0F80C3412F0040FA2
:1015200014BF194323EA0101C0F80C14D0F8381590
:1015300012F4803F14BF41F0010121F00101C0F815
:10154000381570472DE9F00301264FF0000C0325F4
:10155000C2F3411706FA0CF40C4211D0D0F8C48F34
:101560004FEA4C0405FA04F928EA0908C0F8C48FC8
:10157000D0F8C48F07FA04F448EA0404C0F8C44F52
:101580000CF1010C0CF0FF0CBCF1080FE2D3D0F809
:1015900000C512F0010F14BF4CEA010C2CEA010C3B
:1015A000C0F800C5D0F804C512F0020F14BF4CEA11
:1015B000010C2CEA010CC0F804C5D0F808C512F0E3
:1015C000040F14BF4CEA010C2CEA010CC0F808C54A
:1015D000D0F818C512F0080F14BF4CEA010C2CEA21
:1015E000010CC0F818C512F0100FD0F83C2514BF3C
:1015F0000A438A43C0F83C25D0F80C2513F0010FAC
:1016000014BF0A438A43C0F80C25D0F8102513F004
:10161000020F14BF0A438A43C0F81025D0F81425DE
:1016200013F0040F14BF0A438A43C0F81425D0F8FE
:101630001C2513F0080F14BF0A438A43C0F81C2569
:10164000D0F8442513F4007F14BF0A438A43C0F83E
:101650004425D0F8402513F4407F14BF0A438A4341
:10166000C0F84025D0F82825002B0CBF114322EAF2
:101670000101C0F82815BDE8F00370470E4AC0F319
:101680000741D26E01238B401A420C4A1ABF02EB6B
:10169000C101496852F83110020AD1F82C354FF0D7
:1016A0000F0C0CFA02FC00F00F0023EA0C03904030
:1016B0001843C1F82C05704700E00F4010340000BB
:1016C00050F82100704730B50C4605460022FFF760
:1016D000C1FE21462846BDE8304008230122FFF71D
:1016E00031BF30B50C4605460222FFF7B3FE214656
:1016F0002846BDE8304008230122FFF723BF40F809
:101700002120704710B57F4800F004FB7D48C01EC3
:1017100000F000FB7B480C3800F0FCFA79480A38EE
:1017200000F0F8FA10217848FFF7CDFF2021764825
:10173000FFF7C9FF10217548FFF7C5FF2021734847
:10174000FFF7C1FF40217148FFF7BDFF10214FF0A7
:101750004020FFF7B8FF20214FF04020FFF7B3FFF4
:1017600010216B48FFF7AFFF20216948FFF7ABFF5F
:101770000A23012210216448FFF7E4FE0A23012214
:1017800020216148FFF7DEFE0A23012210215F4875
:10179000FFF7D8FE0A23012220215C48FFF7D2FE82
:1017A0000A23012240215948FFF7CCFE0A230122D7
:1017B00010214FF04020FFF7C5FE0A23012220210F
:1017C0004FF04020FFF7BEFE0A23012210215048AF
:1017D000FFF7B8FE0A23012220214D48FFF7B2FE91
:1017E00010214948FFF74DFE20214748FFF749FEE9
:1017F00010214648FFF745FE20214448FFF741FEEF
:1018000040214248FFF73DFE10214FF04020FFF7F6
:1018100038FE20214FF04020FFF733FE10213C48D6
:10182000FFF72FFE20213A48FFF72BFE0022102160
:101830003548FFF75FFE002220213348FFF75AFEAC
:10184000002210213148FFF755FE002220212F48A9
:10185000FFF750FE002240212C48FFF74BFE0022EC
:1018600010214FF04020FFF745FE002220214FF0CD
:101870004020FFF73FFE002210212548FFF73AFEE7
:10188000002220212248FFF735FE22491E48FFF79B
:1018900005FE20491D48FFF701FE1E494FF040207C
:1018A000FFF7FCFD1B491A48FFF7F8FD1021164809
:1018B000FFF7E4FD20211448FFF7E0FD1021134855
:1018C000FFF7DCFD20211148FFF7D8FD40210F482C
:1018D000FFF7D4FD10214FF04020FFF7CFFD20216E
:1018E0004FF04020FFF7CAFD10210948FFF7C6FD61
:1018F00020210748FFF7C2FD10210348FFF7C8FD6C
:1019000010BD00000C0800F000400640001006402A
:10191000006000408D2800001649042804BF0868B4
:1019200040F4803018D0052804BF086840F4003027
:1019300012D0062812D00F2815D0102838BF7047B3
:10194000103800F01F01012202FA01F142090A4891
:1019500050F822000160704708607047086840F442
:101960008020086070474FF0E020016941F00201DB
:101970000161704724ED00E0B037000030B40A4D3B
:101980002A680A4B9A421CBFD5F800C0002207D033
:101990005CF8224043F82240521C9B2AF8D32B606B
:1019A00043F8201030BC704708ED00E00004002030
:1019B00010B5104800F0AEF90F4800F0ABF900BFC9
:1019C0000D4800F0BBF90028FAD00C48FFF756FE8E
:1019D0000B48FFF753FE30210A48FFF782FE6023D1
:1019E000094A0A4801680A4800F0BCFA09A000F058
:1019F000F1FA10BD021800F0030800F00110030016
:101A0000011403000070004060E31600180000207D
:101A100000E000400D0A48656C6C6F2C20776F72F7
:101A20006C64210D0A0000002DE9F003AF4D024661
:101A30002868AF4B1840A0F18053B3F5A02359D0CC
:101A400002F03809DFF8AC82C2F38414B9F1100F48
:101A500025D0B9F1300F04BF47F230504FF40013D6
:101A60000DD04FF03800904304BF4FF40040C30145
:101A700005D012F0380F1CBF0020034613D09E4F34
:101A800012F4605F4FF0000618BF00222CD057F808
:101A9000324044457DD307EBC2025268E1E00023A7
:101AA00040461524EBE7A4F10900122822D29348FE
:101AB000D5F87CC04FF04C7350F824002CF01C0C6F
:101AC000072CA8BF4CF0100CC5F87CC02E6D4FF44D
:101AD000002C16F4807FD2D1BCF1010C0AD02E6DFF
:101AE00016F4807FF8D0CAE712F0380F18BFB9F1AA
:101AF000100F04D0BDE8F0034FF000007047C2F3B0
:101B00000268DFF8FCC14FF0000257F83290E1455F
:101B100003D307EBC202526803E0521C062AF4D337
:101B20003246C5F8C020D5F8B020DFF8D8C102EAA7
:101B30000C0242F00042C5F8B020DFF8CCC1A4F19D
:101B400009024C1E5CF828C0A444BCFBF1FCD5F88B
:101B5000B0101943C5F8B01008EBC80101EB4104FF
:101B60006A4902EB420201EBC40101EB82046468A2
:101B7000C5F86441D5F864416FF0FF0808EB0C2C00
:101B800044EA0C0CC5F864C151F82210D5F8602164
:101B900000E061E002F400021143C5F86011D5F8DD
:101BA0006011D5F86021C1F38921C2F30904D5F889
:101BB0006421C2F3042202F1010CD5F8642102F081
:101BC0001F02521CB0FBF2F04A09C2F10008444364
:101BD000424301EB481104EB5212484302EB9020C0
:101BE000B0FBFCF041080846002257F832C084459B
:101BF00003D307EBC200466802E0521C062AF4D366
:101C0000C5F8C060D5F8600110F4000F1DBFD5F80D
:101C1000B00040F08040C5F8B000D5F8600104BFC6
:101C200040F40000C5F860014FF40040D5F8682189
:101C300012F0010F02D1401E0028F7DC002808BF77
:101C4000002148D0D5F8B000184340F0010040F022
:101C50001040C5F8B0003EE0521C062AFFF417AF52
:101C60003246C5F8C020D5F8602122F40002C5F83C
:101C70006021D5F8B020DFF898C002EA0C0242F0EB
:101C80000042C5F8B020002908BF4FF0000C0AD070
:101C9000B0FBF1FCBCF1000F18BFACF1010C0CF172
:101CA0000101B0FBF1F10846002257F832408442AE
:101CB00003D307EBC200466802E0521C062AF4D3A5
:101CC000C5F8C060D5F8B00043EA8C22104340F05C
:101CD0000040C5F8B000D5F8B00020F47000C5F899
:101CE000B000BDE8F00308467047000000E00F4078
:101CF0000000FF700024F400C4360000A834000087
:101D000040787D0100FC0FE0A03400001435000095
:101D1000FF0300EFC0F307230749C0B2194401F0E5
:101D20007043C1F3130143EA411141EA800040F0DE
:101D3000007001220260704700E60F40C0F30722E6
:101D40000849C0B2114401F07042C1F3130142EAE4
:101D5000411141EA800040F000700068002818BF7F
:101D60000120704700EA0F40C0F307230C49C0B2BE
:101D7000194401F07043C1F3130143EA411141EAF0
:101D8000800040F0007181B001220A6000220092C0
:101D90000098401C00901028FAD30A6001B07047E8
:101DA00000E50F4010B51A48008828B1184800888F
:101DB000401E1749088005E064201549088001206D
:101DC000144908701448008828B113480088401E40
:101DD0001149088005E00A200F49088001200F49B9
:101DE000087001210E48FFF76BFC50B900200B4929
:101DF000087008490870012211460A48FFF77FFC65
:101E000004E0002201210748FFF779FC10BD000023
:101E10000E000020110000200C0000201000002007
:101E200000D00340004006400448006840F47000C1
:101E300002490860024803490860704788ED00E0E5
:101E40000024F4003000002010B51448FFF762FFB2
:101E50000520FEF741FA1148FFF786FF0520FEF73F
:101E60003BFAFF210E4800F051F832210C4800F0F7
:101E70001DF800210A4800F015F80122FF2108484A
:101E800000F05CF84FF0FF32FF21054800F04DF8FC
:101E9000FF21034800F042F810BD0000000400F0EC
:101EA00000000340C0F8C81F7047000010B4C268AB
:101EB00022F0010222F48072C2600A0E0260114A0E
:101EC0001268114B02EA030CACF18054CBB2C1F39F
:101ED0000722B4F5202407D043F40071416042F496
:101EE0000071816010BC70474FF4704C0CEA111403
:101EF000234343F4007343600CEA1121114341F47E
:101F00000071EEE700E00F400000FF70C26840F291
:101F10000113194022EA0101C1607047C26840F212
:101F2000011319401143C160704711F0FF0F18BF32
:101F3000826211F47F4F18BFC262704711F0FF0F29
:101F400018BF826311F47F4F18BFC2637047FF2927
:101F50000CBF806CC06C7047826912F0200FFBD1FF
:101F600001607047D0F818C01CF0080FFAD1D0F803
:101F70002CC02CF0100CC0F82CC0D0F830C02CF0C5
:101F8000010C2CF4407CC0F830C0D0F830C0B1EB6C
:101F9000021F34BF4CF0200C2CF0200CC0F830C0D5
:101FA00038BF5208C900B1FBF2F1491C49088A093F
:101FB000426201F03F018162C36200218161C16A16
:101FC00041F01001C162016B40F201321143016323
:101FD0007047000010B5044604E014F8011B0348E4
:101FE000FFF7BAFF20780028F7D110BD00E00040CD
:101FF00010490F4A18230968DFF83CC001EA0C01B8
:10200000A1F1805CBCF5202C04BF0C4A1B230021ED
:10201000002B0AD952F831C0844503D102EBC1002C
:1020200040687047491C9942F4D300207047000073
:102030007832000000E00F400000FF7038330000ED
:1020400003B401984100009850EAC12018BF042051
:102050004A0D18BF40F0010040F2FF72B2EB515F31
:1020600008BF40F00200012808BF052002B07047F9
:1020700030380A2801D20120704700207047000044
:102080002DE9F0412DED0A8B82B0012700260025B5
:1020900027E0C54800682844242190FBF1F201FBA9
:1020A0001200C24951F82000BF490968294424227E
:1020B00091FBF2F302FB1311BD4A52F82110A0EB81
:1020C0000108404600F062FE41EC190B9FEDB90B90
:1020D00053EC102B00F002FDB84A02EBC50203C21C
:1020E0006D1C242DD5DB00254DE00127002443E0A5
:1020F00004EB44002844B14901EBC00090ED001B03
:10210000B0EE410AF0EE610A9FEDAD1B53EC112BCE
:1021100051EC100B00F088FF2BD204EB4400284454
:10212000401CA64901EBC00090ED001BB0EE410A37
:10213000F0EE610A9FEDA21B53EC112B51EC100B3A
:1021400000F072FF15D204EB44002844801C9B4928
:1021500001EBC00090ED001BB0EE410AF0EE610A09
:102160009FED971B53EC112B51EC100B00F022FE4E
:1021700001D3002702E0641C042CB9DB00BF0FB1BF
:102180002E4602E06D1C182DAFDD00BF0024B3E029
:1021900004EB44003044401C884901EBC00090ED42
:1021A000002BB0EE420AF0EE620A04EB4400304429
:1021B00001EBC00090ED002BB0EE421AF0EE621A77
:1021C00053EC102B51EC110B00F0F4FD49D2002020
:1021D00001A9085574480068304404EB44010844E0
:1021E000801C242190FBF1F201FB1200704951F890
:1021F00020006D490968314404EB44021144242253
:1022000091FBF2F302FB1311694A52F82110A0EB83
:102210000108404600F0BAFD41EC1C0B9FED650B38
:1022200053EC102B00F05AFC41EC1B0B9FED660B9E
:1022300053EC102B00F02EFF41EC1A0B9FED640BBA
:1022400053EC102B00F04AFC41EC190B9FED620B94
:1022500053EC102B00F0EAFD614A02EBC40203C20A
:1022600049E0012001A908554F480068304404EBBB
:1022700044010844801C242190FBF1F201FB120070
:102280004B4951F8201048480068304404EB4402A0
:102290001044401C242290FBF2F302FB1300444A3A
:1022A00052F82000A1EB0008404600F06FFD41EC21
:1022B0001C0B9FED400B53EC102B00F00FFC41EC7E
:1022C0001B0B9FED410B53EC102B00F0E3FE41EC98
:1022D0001A0B9FED3F0B53EC102B00F0FFFB41EC72
:1022E000190B9FED3D0B53EC102B00F09FFD3C4A6A
:1022F00002EBC40203C2641C042CFFF649AF9DF834
:102300000400A0B19DF8070088B1354890ED008B1E
:1023100090ED020B80ED000B90ED040B80ED020BB5
:1023200090ED060B80ED040B80ED068B36E09DF8FA
:102330000400E0B19DF80500C8B1294890ED000BFC
:10234000B0EE408AF0EE608A90ED040B80ED000B59
:1023500080ED048B90ED020BB0EE408AF0EE608AC7
:1023600090ED060B80ED020B80ED068B16E09DF8DC
:10237000050098B19DF8060080B1194890ED068BD4
:1023800090ED040B80ED060B90ED020B80ED040B3D
:1023900090ED000B80ED020B80ED008B02B0BDECE8
:1023A0000A8BBDE8F08100002400002058080020BE
:1023B000C80700200000000000005E40A8060020C2
:1023C0000000000000003440000000000040AF406A
:1023D000000000008046C040000000000080664011
:1023E000E8080020FC49FD48FFF71EFBFC49086097
:1023F000FFF7DEFAFFF786F9FFF726FDF9A0FFF7F2
:10240000E9FD3DE2F948FA4908601020F9490870F1
:10241000F94908600020F9490860F7480168F44864
:102420000068FFF72BF8F4480168F1480068FFF7EF
:102430002FF8F348FFF708F8EF480168EC48006808
:10244000FFF71FF8FFF71CFEEEA0FFF7C3FD002407
:1024500015E0ED4800EBC40090ED001BB0EE410A22
:10246000F0EE610A53EC102BE8A1EA48FDF7CEFF2D
:10247000E848FFF7AFFDE8A0FFF7ACFD641C042CB3
:10248000E7DBE6A0FFF7A6FD2020DA490870DA496D
:1024900008600020D9490860D7480168D44800681E
:1024A000FEF7ECFFD4480168D1480068FEF7F0FF62
:1024B000D348FEF7C9FFD0480168CD480068FEF751
:1024C000E0FFFFF7DDFDD6A0FFF784FD002415E057
:1024D000CD4800EBC40090ED001BB0EE410AF0EED9
:1024E000610A53EC102BC9A1CA48FDF78FFFC948F8
:1024F000FFF770FDC8A0FFF76DFD641C042CE7DB3F
:10250000C6A0FFF767FD4FF04020B94908602020C2
:10251000B8490870B84908600020B8490860B64852
:102520000168B3480068FEF7A9FFB3480168B048E6
:102530000068FEF7ADFFB248FEF786FFAE480168BF
:10254000AB480068FEF79DFFFFF79AFDB5A0FFF7C7
:1025500041FD002415E0AC4800EBC40090ED001BE9
:10256000B0EE410AF0EE610A53EC102BA7A1A94886
:10257000FDF74CFFA748FFF72DFDA7A0FFF72AFDA9
:10258000641C042CE7DBA5A0FFF724FD102099496B
:1025900008709949086000209849086096480168C9
:1025A00093480068FEF76AFF934801689048006806
:1025B000FEF76EFF9248FEF747FF8F4801688C4890
:1025C0000068FEF75EFFFFF75BFD97A0FFF702FDD7
:1025D000002415E08C4800EBC40090ED001BB0EE29
:1025E000410AF0EE610A53EC102B88A18948FDF7EF
:1025F0000DFF8848FFF7EEFC87A0FFF7EBFC641C9B
:10260000042CE7DB85A0FFF7E5FC884878490860E3
:1026100020207849087078490860002077490860D0
:102620007548016872480068FEF728FF7248016823
:102630006F480068FEF72CFF7148FEF705FF6E48F3
:1026400001686B480068FEF71CFFFFF719FD78A0D2
:10265000FFF7C0FC002415E06B4800EBC40090EDD0
:10266000001BB0EE410AF0EE610A53EC102B67A19B
:102670006848FDF7CBFE6748FFF7ACFC66A0FFF7A4
:10268000A9FC641C042CE7DB64A0FFF7A3FC10206A
:102690005849087058490860002058490860564851
:1026A000016853480068FEF7E9FE53480168504846
:1026B0000068FEF7EDFE5248FEF7C6FE4E48016880
:1026C0004B480068FEF7DDFEFFF7DAFC59A0FFF784
:1026D00081FC002415E04C4800EBC40090ED001B89
:1026E000B0EE410AF0EE610A53EC102B47A14948C5
:1026F000FDF78CFE4748FFF76DFC47A0FFF76AFC2B
:10270000641C042CE7DB45A0FFF764FC4A48384909
:1027100008601020374908703749086000203749A1
:1027200008603548016832480068FEF7A7FE324865
:1027300001682F480068FEF7ABFE3148FEF784FEC3
:102740002D4801682A480068FEF79BFEFFF798FCB9
:102750003AA0FFF73FFC002415E02B4800EBC40033
:1027600090ED001BB0EE410AF0EE610A53EC102B25
:1027700026A12848FDF74AFE2648FFF72BFC26A095
:10278000FFF728FC641C042CE7DB24A0FFF722FCE5
:10279000202018490870184908600020174908606F
:1027A0001548016812480068FEF768FE1248016883
:1027B0000F480068FEF76CFE1148FEF745FE0E4814
:1027C00001680B480068FEF75CFEFFF759FC1CA08F
:1027D000FFF700FC00244DE0000E2707800600F103
:1027E000180000205374617274210A0000400640F2
:1027F0000000002004000020080000202400002029
:1028000000093D0031200000E8080020252E31306D
:102810006C66000070060020200000000A00000026
:10282000322000003320000034200000006000400F
:102830003520000036200000001006403720000040
:10284000382000000F4800EBC40090ED001BB0EEF4
:10285000410AF0EE610A53EC102BAFF250010A4826
:10286000FDF7D4FD0848FFF7B5FBAFF25400FFF7C2
:10287000B1FB641C042CE5DBAFF26000FFF7AAFBA0
:10288000C0E50000E80800207006002010B5FF2118
:102890002348FFF75CFB234908602348016823486D
:1028A0000068FEF7EBFD2248017820480068FEF73B
:1028B00002FEB8B91B4800681E4908601E4800683F
:1028C000242190FBF1F201FB12011C48154A126809
:1028D00040F8212004221648017814480068FEF7C9
:1028E00009FE1BE014480068242190FBF1F201FB73
:1028F000120113480B4A126840F821200E48006864
:10290000401C0D490860074800680E490860002215
:102910000748017805480068FEF7ECFD10BD00008F
:1029200000000340200000200800002000000020DC
:10293000040000202C00002024000020C8070020F4
:10294000580800202800002010B500290AD0087877
:10295000002807D005487844FEF774F9002801D014
:10296000002010BD0248784410BD00005E0F00003A
:10297000560F000010B591EA030F48BF83F00043E3
:1029800000F19083841A71EB030C05D2121943EB0A
:102990000C03001B61EB0C01DFF824E14FEA11543A
:1029A000A4EB135C1EEA430F18BF9EEA445F73D08A
:1029B00023EA0E03DCF1200E21EA045143F48013D4
:1029C00032D322FA0CFE10EB0E0023FA0CFE41EB80
:1029D0000E01CCF1200E03FA0EFE10EB0E0051F1A9
:1029E0000001B1F5801FCCF1200E32D201EB045171
:1029F00012FA0EF2BDE8104058BF7047401C38BFB5
:102A00005FEA420218BF7047002814BF20F001009F
:102A100041F100014FEA410313F5001F38BF704731
:102A2000A1F1C04100F0FABA012A43EB0302ACF174
:102A3000200CDCF11F0E32BF4FF0000E23FA0CF316
:102A400010EB030041EB0451B4EB115FD0D0A1EBCC
:102A5000045101F5801149085FEA300001EB04518F
:102A60000ED350F1000038BF12FA0EFE08D1BDE8B7
:102A70001040C9E7401C38BF5FEA4202CAD1C3E731
:102A8000BDE810404FEA410313F5001F38BF7047FF
:102A9000A1F1C04100F0C2BA9EEA445F08D011EA39
:102AA0005E0FBDE8104004BF01F0004100207047F8
:102AB000BDE8104070B500F063FA00BF64FBBE3E95
:102AC0000000E0FF491058BFC1F140415B1058BF02
:102AD000C3F140438B42EFF3008070472DE9C041C2
:102AE00030B4DFF8A0C23CEA111418BF3CEA13145A
:102AF00000F0EC8081EA03051CEA111444EAD57465
:102B000018BF1CEA131500F0C780A4EB05044FF0B2
:102B1000004545EAC12145EAC32341EA505143EA51
:102B2000525304F17F74994204F500344FEAC020F7
:102B30004FEAC22208BF904200F09C804FEA136522
:102B40000FF24016765D4FEA134506FB05F7C7F115
:102B5000807706FB07F74FEAD737A7FB0368764273
:102B6000C8F58038A7FB06CE38BFA8F1010807FBDF
:102B700008E64FF0000EA6FB028CE6FB03CEDCF16C
:102B8000000CCEF1004E38BFAEF1010EA6FB0C5882
:102B90004FF000074FF00005E6FB0E87A1FB08C6CB
:102BA000A0FB07CE16EB0E0645F10005E1FB07651D
:102BB00015F1E04E7EBFA4F580345FEA46066D4114
:102BC00016F1800745F100054FEA17274FEA066620
:102BD00047EA0567A6F1DE46B6F1805F4FEA1525A4
:102BE0001FD9384624F0010C05EBC471BCF1FE6F0F
:102BF00001EB0C1102D8F0BCBDE8008124425CBF9F
:102C000001F5801E9EEAC47F02D4F0BCBDE80081BD
:102C1000244238D4F0BCA1F1C041BDE8004100F02D
:102C2000FDB94FEAD22242EA43524FEAD323A7FB2F
:102C300002864FEAD02040EA415007FB03661EEAB5
:102C40000E0F4FEAD12105FB026658BFA6EB0056D6
:102C5000B6EB00564FEA520E4EEAC37E18EB0E0E4C
:102C600056EB530EBDD518EB02085E417F1C55F1A3
:102C70000005B6E74FF480154FF000074FF000064F
:102C80004FF00008ADE7F0BC4FF0000001F1C0418B
:102C900001F00041BDE8008111EA0C1F0CEA131598
:102CA00000D00CE013EA0C1F00F025804FF000006C
:102CB000F0BC81EA030101F00041BDE80081F0BCF5
:102CC000BDE8004181EA030100F0A8B9F0BCBDE80D
:102CD000004170B500F054F9097EFC3E00F007B8E1
:102CE00081EA03014FF0000001F00041704781EAE2
:102CF000030100F093B9F0BCBDE800414FF00000C3
:102D000021497047FFFDFBF9F7F5F4F2F0EEEDEB2A
:102D1000E9E8E6E4E3E1E0DEDDDBDAD8D7D5D4D3D9
:102D2000D1D0CFCDCCCBCAC8C7C6C5C4C2C1C0BF25
:102D3000BEBDBCBBBAB9B8B7B6B5B4B3B2B1B0AF2B
:102D4000AEADACABAAA9A8A8A7A6A5A4A3A3A2A10F
:102D5000A09F9F9E9D9C9C9B9A99999897979695CA
:102D600095949393929191908F8F8E8E8D8C8C8B66
:102D70008B8A8989888887878685858484838382EE
:102D8000828181800000FF070000F87FB0FA80F3A5
:102D900010FA03F10AD0C3F11D0303F580634FEA73
:102DA00041504FEA035202EBD12170474FF000002F
:102DB0007047000051EA030C17D41CF5801F58BF60
:102DC000BCF5801F00F10680994218BF704708BF0C
:102DD0009042704707D711F5801F58BF13F5801F29
:102DE00019D499427047894270471CF5801F08D555
:102DF000BCF5801FF7D58B4218BF704708BF8242D1
:102E000070474FF4001C1CEB410F38BF1CEB430F05
:102E100001D28B42704770B500F0B2F8922449009D
:102E20004FF000514FF08053FFF74CBEDFF848C120
:102E300070B51CEA111E1EBF1CEA13159EEA0C0F8A
:102E400095EA0C0F00F06F8081EA030423EA4C132B
:102E50004EEAD47E21EA4C1141F4801143F48013F0
:102E6000AE44A1FB024CA0FB0365AEF17F7E361998
:102E700055EB0C05A1FB034C4CF10003A0FB021C1D
:102E800016EB0C06654153F10003094218BF46F0EA
:102E9000010613F4007F0BD14FEA03314FEA0530EE
:102EA000340341EA155140EA16506FF003020AE07C
:102EB0004FEAC3214FEAC520F40241EA555140EAE6
:102EC00056506FF0020202EB2E4201EB025585EAEA
:102ED000CE710AD05FEA440C18BF24F0004450F1D0
:102EE000000041F1000120EAD47040F2FE7C62450E
:102EF00000D270BDA84214BF4FF080444FF0404450
:102F0000002E08BF0024BEF1806FA8BFA1F1C04110
:102F1000BDE8704080F282804FF0000001F1C041B6
:102F200001F0004170479EEA0C0F0CEA131518BF20
:102F300095EA0C0F06D04FF0000081EA030E0EF068
:102F4000004170BD00F01CF88900013E00F007B898
:102F500000F009B84FEA430C5FEA5C5C08D081EAF4
:102F6000030100F05BB84FEA410C5FEA5C5CF6D10C
:102F70004FF00000014970470000FF070000F87F94
:102F80000EF1020E2EF0030E5EF8046B364205D4ED
:102F9000012A43EB030515F5001F12D8012841EB68
:102FA000010C1CF5001F0CD80ED14FEAD17C15F591
:102FB000001F0CEB4C0C0CF1020C08BF4CEBD37C4B
:102FC00004E04FF0080C01E04FEAD37C0CEB4C0519
:102FD00026FA05F606F00706B6F1040C06D20EEB4B
:102FE000860CBDE870404CF0010C6047DFE80CF047
:102FF000090B02024FF000414FF00000A1F5002143
:1030000070BD19461046012851EB010418BFD4F5D4
:10301000001484BF002001F0004170BD0808A0F535
:1030200000114FEA3101704753EA010C17D41CF527
:10303000801F58BFBCF5801F00F106808B4218BF6F
:10304000704708BF8242704707D713F5801F58BFEB
:1030500011F5801F19D48B4270479B4270471CF5B5
:10306000801F08D5BCF5801FF7D5994218BF70475F
:1030700008BF904270474FF4001C1CEB430F38BF51
:103080001CEB410F01D2994270470FB40CBC03BC3A
:10309000FFF7C1BE10B591EA030F48BF83F00043AC
:1030A0003FF570AC841A71EB030C07D212198CF047
:1030B000004C43EB0C03001B61EB0C01DFF8A4E1B7
:1030C0004FEA1154A4EB135C1EEA430F18BF9EEAAB
:1030D000445F00F0B08023EA6E03524221EA0451BB
:1030E000C3EB6E0338BF5B1EDCF1200E25D322FA42
:1030F0000CFE10EB0E0043FA0CFE41EB0E01CCF17E
:10310000200E03FA0EFE10EB0E0051F10001CCF17F
:10311000200E29D412FA0EF201EB0451BDE8104042
:1031200058BF7047401C1CBFB2F1004F70470028C9
:103130000CBF491C20F00100704712EB020E43EB5C
:10314000030218BF4FF0010E4EEA4202ACF1200C10
:10315000DCF11E0E54D943FA0CFE10EB0E0051F1B7
:10316000FF31CCF11E0ED5D50EF1010E12FA0EFE76
:10317000404141EB010101EB445C5FEA5C5C10D92A
:1031800010EBDE7001EB045138BFBEF1004FBDE81B
:10319000104018BF704700280CBF491C20F00100E8
:1031A000704730D24FEAD42C11F5001124F400649A
:1031B0001BD0B1FA81F20B3AA41AA41ED2F120035B
:1031C000914030FA03F31943904001EBCC71002C8D
:1031D00001EB0451BDE81040A8BF704701F1C041A8
:1031E0004FF0000001F000417047B0FA80F310FA90
:1031F00003F100D110BDE41A173C4805C90AE4E701
:1032000001EB045110BD491001EB0451BDE8104021
:103210004FEA300002E04FF0000170474A0008BF5B
:103220000042F8D0B2F5001F28BF704701F00041FE
:103230004FF0000070479EEA445F07D011EA5E0F2E
:10324000BDE8104004BF002100207047BDE81040D9
:1032500070B5FFF795FE00BF40DFF63E83F00041FA
:10326000104670470000E0FF4FF04070E1EE100A9A
:103270007047FDF769BA00000040004010000000F0
:1032800000800540100000000050004011000000C8
:103290000090054011000000006000401200000096
:1032A00000A0054012000000007000401300000064
:1032B00000B0054013000000004002401400000070
:1032C00000C0054014000000005002402E00000025
:1032D00000D005402E000000006002402F000000DA
:1032E00000E005402F0000000070024030000000A8
:1032F00000F005403000000000D003404600000010
:103300000000064046000000001006404700000094
:103310000020064048000000003006407F0000000A
:10332000004006408000000000500640840000007D
:10333000006006408C0000000040004010000000CB
:103340000080054010000000005000401100000007
:1033500000900540110000000060004012000000D5
:1033600000A00540120000000070004013000000A3
:1033700000B00540130000000040024014000000AF
:1033800000C0054014000000005002402E00000064
:1033900000D005402E000000006002402F00000019
:1033A00000E005402F0000000070024030000000E7
:1033B00000F005403000000000D003404300000052
:1033C00000000640430000000010064044000000DA
:1033D0000020064045000000003006405800000074
:1033E0000040064059000000005006405C0000000C
:1033F0000060064064000000007006406C000000A1
:10340000008006406D000000009006407F00000034
:103410000040004000800540005000400090054002
:103420000060004000A005400070004000B0054072
:103430000040024000C005400050024000D005405E
:103440000060024000E005400070024000F00540CE
:1034500000D0034000000640001006400010064067
:1034600000200640002006400030064000300640A4
:103470000040064000400640005006400050064014
:103480000060064000600640007006400070064084
:1034900000800640008006400090064000900640F4
:1034A00000688909001C4E0E40420F0000201C00DD
:1034B00080841E0000802500999E36000040380060
:1034C00000093D0000803E0000004B00404B4C00D6
:1034D00000204E00808D5B0000C05D000080700009
:1034E00000127A0000007D0080969800001BB70053
:1034F0000080BB00C0E8CE00647ADA000024F4004B
:103500000000FA0080A81201002D310100366E0182
:1035100040787D0140000000000000000001000034
:103520003E0008000000000000010000A0000000B4
:1035300002000000000100003454010000000000FF
:10354000000100002B7006000000000000010000D8
:10355000280000000000000000010000270001001A
:10356000000000000001000020000000000000003A
:1035700000010000500000000200000000010000F7
:103580001AAC0000000000000001000017940900C0
:103590000000000000010000169805000000000077
:1035A0000001000014000000000000000001000005
:1035B000138008000000000000010000A0000000CF
:1035C00008000000000100001000000000000000E2
:1035D00000010000280000000200000000010000BF
:1035E0004000000004000000000100006000000036
:1035F00000000000000100005D000C000000000061
:103600000001000050000000000000000001000068
:103610004E000200000000000001000041AC01006B
:1036200000000000000100003C000000000000005D
:10363000000100003A8009000000000000010000C5
:103640003000000000000000000100002800000021
:103650000000000000010000270001000000000041
:1036600000010000236006000000000000010000CF
:103670002160080000000000000100001E000000A2
:1036800000000000000100001DC004000000000058
:1036900000010000500000000200000000010000D6
:1036A00018000000000000000001000014000000ED
:1036B00000000000000100006000000004000000A5
:1036C000000100000024F40030003000005A6202C3
:1036D0009100910000879303D200D20000B4C4048B
:1036E0001301130100E1F50554015401000E2707F1
:1036F000950195010007000000060000000500008C
:1037000000040000000300000002000000010000AF
:10371000000000000000000018ED00E01CED00E0DB
:1037200020ED00E000E400E004E400E008E400E054
:103730000CE400E010E400E014E400E018E400E031
:103740001CE400E020E400E024E400E028E400E0E1
:103750002CE400E030E400E034E400E038E400E091
:103760003CE400E040E400E044E400E048E400E041
:103770004CE400E050E400E054E400E058E400E0F1
:103780005CE400E060E400E064E400E068E400E0A1
:103790006CE400E070E400E074E400E078E400E051
:1037A0007CE400E080E400E084E400E088E400E001
:1037B00000E100E004E100E008E100E00CE100E0ED
:1037C00010E100E080E100E084E100E088E100E059
:1037D0008CE100E090E100E000E200E004E200E0C3
:1037E00008E200E00CE200E010E200E080E200E02D
:1037F00084E200E088E200E08CE200E090E200E099
:1038000002400000000000A0000000000540000091
:10381000000000C8000000000C4000000000409CB8
:1038200000000000194000000020BCBE00000000A5
:1038300034400000BFC91B8E00000004B5400000EA
:10384000504BCFD06607E2CF010000006C41000072
:103850003E8251AADFEEA73401000000D9420000E9
:10386000DCB5A0E23A301F97FFFFFFFFB445000030
:10387000FD25A0C8E9A3C14FFFFFFFFFFF3F0000E8
:103880000000008000000000FF3F000000000080FA
:1038900000000000D0380000000000206C0600008E
:1038A0003C020000EC3800006C060020FC04000024
:1038B000780200001C00000043000000F8FFFFFF3A
:1038C0000C0000000E0000000F0000002E000000A1
:1038D000460040064010E210021B0103FF24F401E1
:0C38E000FF01FF01FF01FF01FF01460096
:0400000500000201F4
:00000001FF
